:100000000C9434000C9451000C9451000C94510049
:100010000C9451000C9451000C9451000C9451001C
:100020000C9451000C9451000C9451000C9451000C
:100030000C9451000C9451000C9451000C945100FC
:100040000C9451000C9451000C947A000C945100C3
:100050000C9451000C9451000C9451000C945100DC
:100060000C9451000C94510011241FBECFEFD8E026
:10007000DEBFCDBF11E0A0E0B1E0E6E9F2E002C0F2
:1000800005900D92AC35B107D9F721E0ACE5B1E0B0
:1000900001C01D92AD37B207E1F70E9453000C94E6
:1000A00049010C9400008FE084B98FEF85B90E945C
:1000B00026017894FFCF41155105B1F0FC01308144
:1000C000FB012081321312C0FC013196DB01119635
:1000D000480F591F04C021919D91291309C0E417AD
:1000E000F507C9F781E0089581E0089580E008955B
:1000F00080E008951F920F920FB60F9211242F9354
:100100003F934F935F936F937F938F939F93AF939F
:10011000BF93EF93FF939091C6009A3009F473C098
:1001200080915C01E82FF0E0E35AFE4F90838F5FEF
:1001300080935C017AC081918D93E217F307D9F720
:100140006FC01192E817F907E1F710925C0145E0E2
:1001500050E068E271E08DE691E00E945B00882348
:1001600021F08DE291E00E943A0148E050E060E227
:1001700071E08DE691E00E945B00882329F02898C9
:100180008CE491E00E943A0148E050E068E171E0BF
:100190008DE691E00E945B00882329F0299880E594
:1001A00091E00E943A0148E050E060E171E08DE6A4
:1001B00091E00E945B00882329F02A9884E591E071
:1001C0000E943A0148E050E068E071E08DE691E07D
:1001D0000E945B00882329F02B9888E591E00E941B
:1001E0003A0148E050E060E071E08DE691E00E9465
:1001F0005B008823D1F085B18F6085B988E491E0F8
:100200000E943A0112C020915C01222349F0EDE5E1
:10021000F1E0ADE6B1E0215030E0225A3E4F8BCF05
:10022000EDE5F1E08DE691E08CCFFF91EF91BF918C
:10023000AF919F918F917F916F915F914F913F917E
:100240002F910F900FBE0F901F9018951092C50020
:1002500083E38093C40088E98093C10086E08093A3
:10026000C2000895E0ECF0E0908195FFFDCF80930F
:10027000C6000895CF93DF93EC018881882331F085
:1002800021960E94320189918111FBCFDF91CF919C
:060290000895F894FFCF71
:100296005357495443482030535749544348203410
:1002A60053574954434820335357495443482032FF
:1002B60053574954434820312A49444E3F545253D8
:1002C60033322C5053495F44432D44432C534E3A0A
:1002D6003030312C56312E30300D0A00310D0A00E7
:0C02E600320D0A00330D0A00340D0A002E
:00000001FF
