S01000005053495F544553542E7372656389
S11300000C9434000C9451000C9451000C94510045
S11300100C9451000C9451000C9451000C94510018
S11300200C9451000C9451000C9451000C94510008
S11300300C9451000C9451000C9451000C945100F8
S11300400C9451000C9451000C947A000C945100BF
S11300500C9451000C9451000C9451000C945100D8
S11300600C9451000C94510011241FBECFEFD8E022
S1130070DEBFCDBF11E0A0E0B1E0EEE9F2E002C0E6
S113008005900D92A035B107D9F721E0A0E5B1E0C4
S113009001C01D92A137B207E1F70E9453000C94EE
S11300A04D010C9400008FE084B98FEF85B90E9454
S11300B01D017894FFCF41155105B1F0FC01308149
S11300C0FB012081321312C0FC013196DB01119631
S11300D0480F591F04C021919D91291309C0E417A9
S11300E0F507C9F781E0089581E0089580E0089557
S11300F080E008951F920F920FB60F9211242F9350
S11301003F934F935F936F937F938F939F93AF939B
S1130110BF93EF93FF939091C6009A3009F46AC09D
S113012080915001E82FF0E0EF5AFE4F90838F5FEB
S11301308093500171C081918D93E217F307D9F731
S113014066C01192E817F907E1F71092500145E0F3
S113015050E06CE271E081E691E00E945B0088234C
S113016021F081E391E00E94310144E050E068E233
S113017071E081E691E00E945B00882329F085B15B
S11301808F6085B90E94400148E050E060E271E070
S113019081E691E00E945B008111289848E050E0DC
S11301A068E171E081E691E00E945B008111299889
S11301B048E050E060E171E081E691E00E945B007C
S11301C081112A9848E050E068E071E081E691E00E
S11301D00E945B0081112B9848E050E060E071E0E0
S11301E081E691E00E945B008823B1F085B18F60C5
S11301F085B912C020915001222349F0E1E5F1E0D4
S1130200A1E6B1E0215030E02E5A3E4F94CFE1E513
S1130210F1E081E691E095CFFF91EF91BF91AF912D
S11302209F918F917F916F915F914F913F912F910A
S11302300F900FBE0F901F9018951092C50083E386
S11302408093C40088E98093C10086E08093C20053
S11302500895E0ECF0E0908195FFFDCF8093C60017
S11302600895CF93DF93EC018881882331F02196A0
S11302700E94290189918111FBCFDF91CF910895CB
S11302808091C000882344F4A6ECB0E0E0ECF0E0F8
S11102908C9180818823E4F30895F894FFCFC5
S113029E5357495443482030535749544348203404
S11302AE53574954434820335357495443482032F3
S11302BE53574954434820312A5253542A49444EE1
S11302CE3F54525333322C5053495F44432D4443CD
S11302DE2C534E3A3030312C56312E30300D0A001C
S9030000FC
